S01400006176725F377365675F6D75782E7372656339
S11300000C942A000C943C000C943C000C943C008E
S11300100C943C000C943C000C943C000C943C006C
S11300200C943C000C943C000C943C000C943C005C
S11300300C943C000C943C000C943C000C943C004C
S11300400C943C000C943C000C943C000C943C003C
S11300500C943C0011241FBECFE5D4E0DEBFCDBF1D
S113006020E0A0E6B0E001C01D92A036B207E1F79F
S11300700E9446000C944B000C94000087E78ABB56
S11300808BBB089587E787BB88BB08950E943E0019
S10D00900E944200FFCFF894FFCF56
S9030000FC
