S00F00006D7578377365672E7372656345
S11300000C942A000C943C000C943C000C943C008E
S11300100C943C000C943C000C943C000C943C006C
S11300200C943C000C943C000C943C000C943C005C
S11300300C943C000C943C000C943C000C943C004C
S11300400C943C000C943C000C943C000C943C003C
S11300500C943C0011241FBECFE5D8E0DEBFCDBF19
S113006020E0A0E6B0E001C01D92A036B207E1F79F
S11300700E943E000C9474000C9400008FEF84BB2B
S11300808ABB59E741E099E132E084E028E055BBBE
S11300904BBB6FE976E8E1E061507040E040E1F786
S11300A000C0000095BB3BBB6FE976E8E1E061501E
S11300B07040E040E1F700C0000085BB8BBB6FE9F6
S11300C076E8E1E061507040E040E1F700C00000F4
S11300D095BB2BBB6FE976E8E1E061507040E040EE
S10F00E0E1F700C00000D3CFF894FFCF7C
S9030000FC
