S00F00006D7578377365672E7372656345
S11300000C942A000C943C000C943C000C943C008E
S11300100C943C000C943C000C943C000C943C006C
S11300200C943C000C943C000C943C000C943C005C
S11300300C943C000C943C000C943C000C943C004C
S11300400C943C000C943C000C943C000C943C003C
S11300500C943C0011241FBECFE5D8E0DEBFCDBF19
S113006020E0A0E6B0E001C01D92A036B207E1F79F
S11300700E943E000C9477000C9400008FEF84BB28
S113008096E095BB8ABB81E08BBB2FE78AE196E0C3
S1130090215080409040E1F700C0000079E768E01B
S11300A059E144E030E422E092E181E075BB6BBBAE
S11300B0E3EDF0E33197F1F700C0000055BB4BBB13
S11300C0E3EDF0E33197F1F700C0000035BB2BBB43
S11300D0E3EDF0E33197F1F700C0000095BB8BBB73
S11300E0E3EDF0E33197F1F700C00000DFCFF894BF
S10500F0FFCF3C
S9030000FC
